:020000020000FC
:100000000C943A000C9430000C9432000C943400A0
:040010000C94360016
:040054000C943800D0
:1000600040E0189541E0189542E0189543E0189556
:1000700071E018950FEF0DBF00E10EBF0FEF02B951
:100080000FE009BF0AEA00936A00789436D016D2CE
:100090000EE806B903E007B98827992744275527B2
:1000A0000C949C023090008037FCFCCF03D000936E
:1000B0000080089500D0000008952D3069F12A30A5
:1000C000A9F10091008007FDFCCFF4DF209300C070
:1000D000089501E0E7CF02E0E5CF00E1E3CF04E1DE
:1000E000E1CF08E1DFCF0CE1DDCF0DE0DBCF0CE0AD
:1000F000D9CF0EE0D7CF0CE0D5CF05B7006C05BF48
:1001000001E0D0DF06E0CEDF0CE0CCDF08E3CADFA1
:100110000895022F0068C6CF0091008007FDFCCF34
:1001200000740068C7DF0093008008952F9320E4D7
:10013000F0DF2F910895FF91EF91EE0FFF1FAF9326
:10014000BF93C8953196002021F04AF0002D17D0BA
:10015000F8CF3196F695E795BF91AF91099400FAE3
:10016000002DC895A02DA03610F0B2E001C0BB272D
:100170003196043879F0053881F015C0E2CF2F931D
:10018000FF93EF93E42DF52D202F0995EF91FF912B
:100190002F9108950C91F3DFD4CF0D91002309F432
:1001A000D0CFEDDFFACF5F934F933F932F939F9381
:1001B0008F937F936F932D913D914D915D9106FDAE
:1001C00006C005FD0FC004FD10C003FD19C06AE0A4
:1001D000702F76957770729580E0902F929593703E
:1001E00093951AC062E094E003C060E194E000C01F
:1001F000702F7695777009F478E0729580E00CC0E6
:100200006AE0C895802D3196C895702D3196902F53
:1002100095959370939500C0943081F0933051F090
:10022000923021F0332716F427FD3FEF442716F4D0
:1002300037FD4FEF552716F447FD5FEF09D06F915B
:100240007F918F919F912F913F914F915F9179CFA6
:10025000CF92BF92AF929F928F92BB18AA249924FB
:10026000882486F4E89455236AF46894772309F087
:10027000705150954095309520950FEF201B300B15
:10028000400B500B882351F055954795379527958E
:10029000B794A794979487948A95B1F77F937295B2
:1002A0007F700EE20F9345D00C2D30D00F930027B6
:1002B000201730074007500729F07723A1F37A95DC
:1002C00091F707C0772329F07A9519F000E257DFFC
:1002D000F9CF16F40DE253DF0F910E3211F04FDF1C
:1002E000FBCF7F917F70772359F049DF282D392D7F
:1002F0004A2D5B2D11D00C2D09D041DF7A95D1F715
:100300008F909F90AF90BF90CF9008950A3010F4D7
:10031000005D0895095A0895CC2400E2889420FDD8
:10032000C60EC79457954795379527950A95B1F707
:100330000895CC2400E2221F331F441F551FCC1CFC
:10034000C61A08F4C60E0A95B1F7221F331F441FC0
:10035000551F50954095309520950895762F662726
:100360003327222371F0022F6DD000000A95E1F7A8
:100370001A9B02C01A9801C01A9A621B730B98F755
:10038000089521E05FD0621B730BE0F7089568E2E7
:100390004423A9F4E3DF04E8302E04E00F933F92F6
:1003A00000E3302E06E03A94F1F73A940A95D9F733
:1003B0003F900F913A9491F70A9581F70895413053
:1003C000A9F4CCDF00E9302E02E00F933F9200E366
:1003D000302E06E03A94F1F73A940A95D9F73F9017
:1003E0000F913A9491F70A9581F708954230A9F454
:1003F000B5DF09EE302E01E00F933F9200E3302E7F
:1004000006E03A94F1F73A940A95D9F73F900F91A4
:100410003A9491F70A9581F70895A0DF06E9302E06
:1004200001E00F933F9200E3302E06E03A94F1F79B
:100430003A940A95D9F73F900F913A9491F70A951B
:1004400081F7089500C000C000D000D000000895DA
:100450003327E2E6F4E0E20FF31FC895202D97DF83
:100460000895C1AB999080726660554C484039330D
:10047000022F8894000F000F000F10E4101BE0E023
:10048000F4E025E0219325E0219325E021930A95CE
:10049000C1F720E0219320E0219320E021931A95D9
:1004A000C1F7E0E0F4E000E4002E219131914191A8
:1004B000F89407D078940A94C1F734D00FEF07BBB3
:1004C000089508E027FD06C03324C19A38BA000019
:1004D000000004C0C19A00000000C198220F0A95D4
:1004E00089F708E037FD06C03324C19A38BA000006
:1004F000000004C0C19A00000000C198330F0A95A3
:1005000089F708E047FD06C03324C19A38BA0000D5
:10051000000004C0C19A00000000C198440F0A9571
:1005200089F70895C19801E4302E01E03A94F1F77B
:100530003A940A95D9F7089501E0302E01E00F931F
:100540003F9200E3302E06E03A94F1F73A940A9590
:10055000D9F73F900F913A9491F70A9581F7772751
:10056000369A70FFFECF24B135B126952695269593
:100570002695330F330F330F330F230F2695269510
:100580003070243010F401E019C0253010F402E07E
:1005900015C0263010F403E011C0273010F404E039
:1005A0000DC0293010F405E009C02C3010F406E02D
:1005B00005C02F3010F407E001C008E0202F4423CD
:1005C00079F40DE5402E00E0502EB5DD0D0D6E6F77
:1005D000697265732020202020202020200032C056
:1005E000413079F40DE5402E00E0502EA4DD0D0DD4
:1005F00063726F6368657320202020202020200014
:1006000021C0423081F40DE5402E00E0502E93DDF4
:100610000D0D7472696F6C657420202020202020DD
:10062000202020000FC043300DE5402E00E0502E6A
:1006300082DD0D0D646F75626C65732063726F638C
:10064000686573002F934F9313DF4F912F9100DF55
:0206500073CF66
:00000001FF
